{"abi":[{"type":"constructor","inputs":[{"name":"_admin","type":"address","internalType":"address"},{"name":"_allowedTokens","type":"address[]","internalType":"address[]"}],"stateMutability":"nonpayable"},{"type":"function","name":"UNISWAP_ROUTER_ADDRESS","inputs":[],"outputs":[{"name":"","type":"address","internalType":"address"}],"stateMutability":"view"},{"type":"function","name":"USDC_ADDRESS","inputs":[],"outputs":[{"name":"","type":"address","internalType":"address"}],"stateMutability":"view"},{"type":"function","name":"WETH_ADDRESS","inputs":[],"outputs":[{"name":"","type":"address","internalType":"address"}],"stateMutability":"view"},{"type":"function","name":"fundWithEther","inputs":[{"name":"_wethAmount","type":"uint256","internalType":"uint256"},{"name":"_usdcAmount","type":"uint256","internalType":"uint256"},{"name":"_deadline","type":"uint256","internalType":"uint256"},{"name":"_slippage","type":"uint256","internalType":"uint256"}],"outputs":[],"stateMutability":"nonpayable"},{"type":"function","name":"fundWithStableCoin","inputs":[{"name":"_token","type":"address","internalType":"address"},{"name":"_amount","type":"uint256","internalType":"uint256"}],"outputs":[],"stateMutability":"nonpayable"},{"type":"event","name":"FundedWithEther","inputs":[{"name":"user","type":"address","indexed":true,"internalType":"address"},{"name":"_token","type":"address","indexed":false,"internalType":"address"},{"name":"amount","type":"uint256","indexed":false,"internalType":"uint256"}],"anonymous":false},{"type":"event","name":"FundedWithStable","inputs":[{"name":"user","type":"address","indexed":true,"internalType":"address"},{"name":"_token","type":"address","indexed":false,"internalType":"address"},{"name":"amount","type":"uint256","indexed":false,"internalType":"uint256"}],"anonymous":false}],"bytecode":{"object":"0x608060405234801561001057600080fd5b5060405161322e38038061322e83398101604081905261002f916101f0565b600380546001600160a01b0319166001600160a01b03841617905560005b81518110156100a85760016002600084848151811061006e5761006e6102c9565b6020908102919091018101516001600160a01b03168252810191909152604001600020805460ff191691151591909117905560010161004d565b50306040516100b6906101a4565b60608082526009908201526814dade549bd8dad95d60ba1b608082015260a0602082018190526003908201526214d2d560ea1b60c08201526001600160a01b03909116604082015260e001604051809103906000f08015801561011d573d6000803e3d6000fd5b50600460006101000a8154816001600160a01b0302191690836001600160a01b03160217905550813082604051610153906101b1565b61015f939291906102df565b604051809103906000f08015801561017b573d6000803e3d6000fd5b50600580546001600160a01b0319166001600160a01b0392909216919091179055506103449050565b610ae280610f5d83390190565b6117ef80611a3f83390190565b80516001600160a01b03811681146101d557600080fd5b919050565b634e487b7160e01b600052604160045260246000fd5b6000806040838503121561020357600080fd5b61020c836101be565b602084810151919350906001600160401b038082111561022b57600080fd5b818601915086601f83011261023f57600080fd5b815181811115610251576102516101da565b8060051b604051601f19603f83011681018181108582111715610276576102766101da565b60405291825284820192508381018501918983111561029457600080fd5b938501935b828510156102b9576102aa856101be565b84529385019392850192610299565b8096505050505050509250929050565b634e487b7160e01b600052603260045260246000fd5b60006060820160018060a01b038087168452602081871660208601526060604086015282865180855260808701915060208801945060005b81811015610335578551851683529483019491830191600101610317565b50909998505050505050505050565b610c0a806103536000396000f3fe608060405234801561001057600080fd5b50600436106100575760003560e01c8063040141e51461005c5780631d8408cc1461009357806379b36943146100a85780637e910a85146100c3578063bb09d9b7146100d6575b600080fd5b61007773367d85aa4c908b5cc8a71373ff6092c82740ff0e81565b6040516001600160a01b03909116815260200160405180910390f35b6100a66100a1366004610950565b6100f1565b005b61007773c532a74256d3db42d0bf7a0400fefdbad769400881565b6100a66100d1366004610988565b61039c565b61007773d2de6032b0bc2acc3d5a03df8b024fa4fac7b0a981565b6001600160a01b03821660009081526002602052604090205460ff166101525760405162461bcd60e51b8152602060048201526011602482015270151bdad95b881b9bdd08185b1b1bddd959607a1b60448201526064015b60405180910390fd5b620f42408110156101b45760405162461bcd60e51b815260206004820152602660248201527f416d6f756e742073686f756c642062652067726561746572206f7220657175616044820152656c20746f203160d01b6064820152608401610149565b33600081815260208190526040812080548492906101d39084906109d0565b90915550506001600160a01b038082166000908152600160209081526040808320600554825163f8a518ed60e01b815292518896929594919092169263f8a518ed92600480830193928290030181865afa158015610235573d6000803e3d6000fd5b505050506040513d601f19601f8201168201806040525081019061025991906109e9565b8152602001908152602001600020600082825461027691906109d0565b9091555050600554604051634edf962960e01b81526001600160a01b03838116600483015285811660248301526044820185905290911690634edf962990606401600060405180830381600087803b1580156102d157600080fd5b505af11580156102e5573d6000803e3d6000fd5b5050600480546040516340c10f1960e01b81526001600160a01b038681169382019390935260248101879052911692506340c10f199150604401600060405180830381600087803b15801561033957600080fd5b505af115801561034d573d6000803e3d6000fd5b5050604080516001600160a01b03878116825260208201879052851693507f90ffa59d2281d729275a88685329e372f63d4c0bc95a668d04c2abb58ff044ba92500160405180910390a2505050565b33846103e05760405162461bcd60e51b8152602060048201526013602482015272125b9d985b1a590815d1551208185b5bdd5b9d606a1b6044820152606401610149565b6040516323b872dd60e01b81523360048201523060248201526044810186905273367d85aa4c908b5cc8a71373ff6092c82740ff0e906323b872dd906064016020604051808303816000875af115801561043e573d6000803e3d6000fd5b505050506040513d601f19601f820116820180604052508101906104629190610a02565b6104a05760405162461bcd60e51b815260206004820152600f60248201526e151c985b9cd9995c8819985a5b1959608a1b6044820152606401610149565b60405163095ea7b360e01b815273c532a74256d3db42d0bf7a0400fefdbad769400860048201526024810186905273367d85aa4c908b5cc8a71373ff6092c82740ff0e9063095ea7b3906044016020604051808303816000875af115801561050c573d6000803e3d6000fd5b505050506040513d601f19601f820116820180604052508101906105309190610a02565b5060408051600280825260608201835260009260208301908036833701905050905073367d85aa4c908b5cc8a71373ff6092c82740ff0e8160008151811061057a5761057a610a41565b60200260200101906001600160a01b031690816001600160a01b03168152505073d2de6032b0bc2acc3d5a03df8b024fa4fac7b0a9816001815181106105c2576105c2610a41565b6001600160a01b039092166020928302919091019091015260006103e86105e98582610a57565b6105f39088610a6a565b6105fd9190610a81565b6040516338ed173960e01b815290915060009073c532a74256d3db42d0bf7a0400fefdbad7694008906338ed173990610642908b908690889030908d90600401610aa3565b6000604051808303816000875af1158015610661573d6000803e3d6000fd5b505050506040513d6000823e601f3d908101601f191682016040526106899190810190610b16565b90506000816001815181106106a0576106a0610a41565b6020026020010151905080600080876001600160a01b03166001600160a01b0316815260200190815260200160002060008282546106de91906109d0565b90915550506001600160a01b038086166000908152600160209081526040808320600554825163f8a518ed60e01b815292518796929594919092169263f8a518ed92600480830193928290030181865afa158015610740573d6000803e3d6000fd5b505050506040513d601f19601f8201168201806040525081019061076491906109e9565b8152602001908152602001600020600082825461078191906109d0565b909155505060055460405163095ea7b360e01b81526001600160a01b0390911660048201526024810182905273d2de6032b0bc2acc3d5a03df8b024fa4fac7b0a99063095ea7b3906044016020604051808303816000875af11580156107eb573d6000803e3d6000fd5b505050506040513d601f19601f8201168201806040525081019061080f9190610a02565b50600554604051634edf962960e01b815230600482015273d2de6032b0bc2acc3d5a03df8b024fa4fac7b0a96024820152604481018390526001600160a01b0390911690634edf962990606401600060405180830381600087803b15801561087657600080fd5b505af115801561088a573d6000803e3d6000fd5b5050600480546040516340c10f1960e01b81526001600160a01b038a81169382019390935260248101869052911692506340c10f199150604401600060405180830381600087803b1580156108de57600080fd5b505af11580156108f2573d6000803e3d6000fd5b50506040805173d2de6032b0bc2acc3d5a03df8b024fa4fac7b0a98152602081018590523393507fa0ac505932e5947ee89d153d7afd2bbc2c6398070c4760df39e8838a6bd4e14992500160405180910390a2505050505050505050565b6000806040838503121561096357600080fd5b82356001600160a01b038116811461097a57600080fd5b946020939093013593505050565b6000806000806080858703121561099e57600080fd5b5050823594602084013594506040840135936060013592509050565b634e487b7160e01b600052601160045260246000fd5b808201808211156109e3576109e36109ba565b92915050565b6000602082840312156109fb57600080fd5b5051919050565b600060208284031215610a1457600080fd5b81518015158114610a2457600080fd5b9392505050565b634e487b7160e01b600052604160045260246000fd5b634e487b7160e01b600052603260045260246000fd5b818103818111156109e3576109e36109ba565b80820281158282048414176109e3576109e36109ba565b600082610a9e57634e487b7160e01b600052601260045260246000fd5b500490565b600060a08201878352602087602085015260a0604085015281875180845260c08601915060208901935060005b81811015610af55784516001600160a01b031683529383019391830191600101610ad0565b50506001600160a01b03969096166060850152505050608001529392505050565b60006020808385031215610b2957600080fd5b825167ffffffffffffffff80821115610b4157600080fd5b818501915085601f830112610b5557600080fd5b815181811115610b6757610b67610a2b565b8060051b604051601f19603f83011681018181108582111715610b8c57610b8c610a2b565b604052918252848201925083810185019188831115610baa57600080fd5b938501935b82851015610bc857845184529385019392850192610baf565b9897505050505050505056fea2646970667358221220ca596d915f689dae54c7a23680cb68c9df7d1c8bc36461ebc3fd4dd60aa153a564736f6c63430008190033608060405234801561001057600080fd5b50604051610ae2380380610ae283398101604081905261002f91610134565b8282600361003d8382610244565b50600461004a8282610244565b5050600580546001600160a01b0319166001600160a01b03939093169290921790915550610303915050565b634e487b7160e01b600052604160045260246000fd5b600082601f83011261009d57600080fd5b81516001600160401b03808211156100b7576100b7610076565b604051601f8301601f19908116603f011681019082821181831017156100df576100df610076565b81604052838152602092508660208588010111156100fc57600080fd5b600091505b8382101561011e5785820183015181830184015290820190610101565b6000602085830101528094505050505092915050565b60008060006060848603121561014957600080fd5b83516001600160401b038082111561016057600080fd5b61016c8783880161008c565b9450602086015191508082111561018257600080fd5b5061018f8682870161008c565b604086015190935090506001600160a01b03811681146101ae57600080fd5b809150509250925092565b600181811c908216806101cd57607f821691505b6020821081036101ed57634e487b7160e01b600052602260045260246000fd5b50919050565b601f82111561023f576000816000526020600020601f850160051c8101602086101561021c5750805b601f850160051c820191505b8181101561023b57828155600101610228565b5050505b505050565b81516001600160401b0381111561025d5761025d610076565b6102718161026b84546101b9565b846101f3565b602080601f8311600181146102a6576000841561028e5750858301515b600019600386901b1c1916600185901b17855561023b565b600085815260208120601f198616915b828110156102d5578886015182559484019460019091019084016102b6565b50858210156102f35787850151600019600388901b60f8161c191681555b5050505050600190811b01905550565b6107d0806103126000396000f3fe608060405234801561001057600080fd5b506004361061009e5760003560e01c806340c10f191161006657806340c10f191461011857806370a082311461012d57806395d89b4114610156578063a9059cbb1461015e578063dd62ed3e1461017157600080fd5b806306fdde03146100a3578063095ea7b3146100c157806318160ddd146100e457806323b872dd146100f6578063313ce56714610109575b600080fd5b6100ab6101aa565b6040516100b89190610619565b60405180910390f35b6100d46100cf366004610684565b61023c565b60405190151581526020016100b8565b6002545b6040519081526020016100b8565b6100d46101043660046106ae565b610256565b604051600681526020016100b8565b61012b610126366004610684565b61027a565b005b6100e861013b3660046106ea565b6001600160a01b031660009081526020819052604090205490565b6100ab6102d8565b6100d461016c366004610684565b6102e7565b6100e861017f36600461070c565b6001600160a01b03918216600090815260016020908152604080832093909416825291909152205490565b6060600380546101b99061073f565b80601f01602080910402602001604051908101604052809291908181526020018280546101e59061073f565b80156102325780601f1061020757610100808354040283529160200191610232565b820191906000526020600020905b81548152906001019060200180831161021557829003601f168201915b5050505050905090565b60003361024a8185856102f5565b60019150505b92915050565b600033610264858285610307565b61026f858585610385565b506001949350505050565b6005546001600160a01b031633146102ca5760405162461bcd60e51b815260206004820152600e60248201526d139bdd08105d5d1a1bdc9a5e995960921b60448201526064015b60405180910390fd5b6102d482826103e4565b5050565b6060600480546101b99061073f565b60003361024a818585610385565b610302838383600161041a565b505050565b6001600160a01b03838116600090815260016020908152604080832093861683529290522054600019811461037f578181101561037057604051637dc7a0d960e11b81526001600160a01b038416600482015260248101829052604481018390526064016102c1565b61037f8484848403600061041a565b50505050565b6001600160a01b0383166103af57604051634b637e8f60e11b8152600060048201526024016102c1565b6001600160a01b0382166103d95760405163ec442f0560e01b8152600060048201526024016102c1565b6103028383836104ef565b6001600160a01b03821661040e5760405163ec442f0560e01b8152600060048201526024016102c1565b6102d4600083836104ef565b6001600160a01b0384166104445760405163e602df0560e01b8152600060048201526024016102c1565b6001600160a01b03831661046e57604051634a1406b160e11b8152600060048201526024016102c1565b6001600160a01b038085166000908152600160209081526040808320938716835292905220829055801561037f57826001600160a01b0316846001600160a01b03167f8c5be1e5ebec7d5bd14f71427d1e84f3dd0314c0f7b2291e5b200ac8c7c3b925846040516104e191815260200190565b60405180910390a350505050565b6001600160a01b03831661051a57806002600082825461050f9190610779565b9091555061058c9050565b6001600160a01b0383166000908152602081905260409020548181101561056d5760405163391434e360e21b81526001600160a01b038516600482015260248101829052604481018390526064016102c1565b6001600160a01b03841660009081526020819052604090209082900390555b6001600160a01b0382166105a8576002805482900390556105c7565b6001600160a01b03821660009081526020819052604090208054820190555b816001600160a01b0316836001600160a01b03167fddf252ad1be2c89b69c2b068fc378daa952ba7f163c4a11628f55a4df523b3ef8360405161060c91815260200190565b60405180910390a3505050565b60006020808352835180602085015260005b818110156106475785810183015185820160400152820161062b565b506000604082860101526040601f19601f8301168501019250505092915050565b80356001600160a01b038116811461067f57600080fd5b919050565b6000806040838503121561069757600080fd5b6106a083610668565b946020939093013593505050565b6000806000606084860312156106c357600080fd5b6106cc84610668565b92506106da60208501610668565b9150604084013590509250925092565b6000602082840312156106fc57600080fd5b61070582610668565b9392505050565b6000806040838503121561071f57600080fd5b61072883610668565b915061073660208401610668565b90509250929050565b600181811c9082168061075357607f821691505b60208210810361077357634e487b7160e01b600052602260045260246000fd5b50919050565b8082018082111561025057634e487b7160e01b600052601160045260246000fdfea26469706673582212205e131f9151c65a698c1a33b78249106b5a840ad6d270a73054aed289a12a0d7464736f6c63430008190033608060405234801561001057600080fd5b506040516117ef3803806117ef83398101604081905261002f9161015f565b600280546001600160a01b038086166001600160a01b03199283161790925560038054928516929091169190911790558051819060009061007257610072610247565b6020026020010151600460006101000a8154816001600160a01b0302191690836001600160a01b03160217905550806001815181106100b3576100b3610247565b6020026020010151600560006101000a8154816001600160a01b0302191690836001600160a01b03160217905550806002815181106100f4576100f4610247565b6020908102919091010151600680546001600160a81b0319166001600160a01b0390921691909117600160a01b1790555061025d915050565b80516001600160a01b038116811461014457600080fd5b919050565b634e487b7160e01b600052604160045260246000fd5b60008060006060848603121561017457600080fd5b61017d8461012d565b9250602061018c81860161012d565b60408601519093506001600160401b03808211156101a957600080fd5b818701915087601f8301126101bd57600080fd5b8151818111156101cf576101cf610149565b8060051b604051601f19603f830116810181811085821117156101f4576101f4610149565b60405291825284820192508381018501918a83111561021257600080fd5b938501935b82851015610237576102288561012d565b84529385019392850192610217565b8096505050505050509250925092565b634e487b7160e01b600052603260045260246000fd5b6115838061026c6000396000f3fe608060405234801561001057600080fd5b50600436106100cf5760003560e01c8063846ee4431161008c578063cb4c86b711610066578063cb4c86b7146101a7578063f851a440146101ba578063f89ec5f5146101cd578063f8a518ed146101e057600080fd5b8063846ee443146101795780639e25b71e14610181578063c90246b91461019457600080fd5b80630d9d1820146100d457806327947c4d146100de57806337041dbd14610115578063389b7533146101405780634edf96291461015357806371e35a8e14610166575b600080fd5b6100dc6101f7565b005b6100e661080f565b604080516001600160a01b03909516855260208501939093529183015260608201526080015b60405180910390f35b600454610128906001600160a01b031681565b6040516001600160a01b03909116815260200161010c565b6100dc61014e3660046113d5565b61090e565b6100dc61016136600461140a565b610a55565b600654610128906001600160a01b031681565b6100dc610c18565b6100dc61018f3660046113d5565b6110cb565b6100dc6101a2366004611446565b6111a8565b600354610128906001600160a01b031681565b600254610128906001600160a01b031681565b600554610128906001600160a01b031681565b6101e960015481565b60405190815260200161010c565b6002546001600160a01b0316331461022a5760405162461bcd60e51b815260040161022190611479565b60405180910390fd5b6000806001805461023b91906114c6565b815260200190815260200160002060020154421161029b5760405162461bcd60e51b815260206004820152601860248201527f446561646c696e65206e6f7420726561636865642079657400000000000000006044820152606401610221565b600080600180546102ac91906114c6565b815260200190815260200160002060010154600080600180546102cf91906114c6565b81526020019081526020016000206003015410156103265760405162461bcd60e51b815260206004820152601460248201527311dbd85b081b9bdd081c995858da1959081e595d60621b6044820152606401610221565b60008060006001805461033991906114c6565b8152602081019190915260409081016000908120546004805493516370a0823160e01b815230918101919091526001600160a01b039182169450919216906370a0823190602401602060405180830381865afa15801561039d573d6000803e3d6000fd5b505050506040513d601f19601f820116820180604052508101906103c191906114df565b6005546040516370a0823160e01b81523060048201529192506000916001600160a01b03909116906370a0823190602401602060405180830381865afa15801561040f573d6000803e3d6000fd5b505050506040513d601f19601f8201168201806040525081019061043391906114df565b6006546040516370a0823160e01b81523060048201529192506000916001600160a01b03909116906370a0823190602401602060405180830381865afa158015610481573d6000803e3d6000fd5b505050506040513d601f19601f820116820180604052508101906104a591906114df565b90506000816104b484866114f8565b6104be91906114f8565b600480546040516370a0823160e01b815230928101929092529192506001600160a01b039091169063a9059cbb90879083906370a0823190602401602060405180830381865afa158015610516573d6000803e3d6000fd5b505050506040513d601f19601f8201168201806040525081019061053a91906114df565b6040516001600160e01b031960e085901b1681526001600160a01b03909216600483015260248201526044016020604051808303816000875af1158015610585573d6000803e3d6000fd5b505050506040513d601f19601f820116820180604052508101906105a9919061150b565b506005546040516370a0823160e01b81523060048201526001600160a01b039091169063a9059cbb90879083906370a0823190602401602060405180830381865afa1580156105fc573d6000803e3d6000fd5b505050506040513d601f19601f8201168201806040525081019061062091906114df565b6040516001600160e01b031960e085901b1681526001600160a01b03909216600483015260248201526044016020604051808303816000875af115801561066b573d6000803e3d6000fd5b505050506040513d601f19601f8201168201806040525081019061068f919061150b565b506006546040516370a0823160e01b81523060048201526001600160a01b039091169063a9059cbb90879083906370a0823190602401602060405180830381865afa1580156106e2573d6000803e3d6000fd5b505050506040513d601f19601f8201168201806040525081019061070691906114df565b6040516001600160e01b031960e085901b1681526001600160a01b03909216600483015260248201526044016020604051808303816000875af1158015610751573d6000803e3d6000fd5b505050506040513d601f19601f82011682018060405250810190610775919061150b565b50846001600160a01b03167fc90c76155d237557f9162f07cd0da2ff40418cd82028c0e89535270fb9de5104600180546107af91906114c6565b60408051918252602082018590520160405180910390a26107ce61135d565b600654604051600160a01b90910460ff161515907f0e2fb031ee032dc02d8011dc50b816eb450cf856abd8261680dac74f72165bd290600090a25050505050565b600654600090819081908190600160a01b900460ff16156108685760405162461bcd60e51b81526020600482015260136024820152724e6f204f6e676f696e672050726f6a6563747360681b6044820152606401610221565b6000806001805461087991906114c6565b81526020810191909152604001600090812054600180546001600160a01b03909216929182916108a8916114c6565b815260200190815260200160002060010154600080600180546108cb91906114c6565b815260200190815260200160002060030154600080600180546108ee91906114c6565b815260200190815260200160002060020154935093509350935090919293565b6002546001600160a01b031633146109385760405162461bcd60e51b815260040161022190611479565b60008060006001805461094b91906114c6565b81526020019081526020016000206002015490508062093a8061096e91906114f8565b8210156109f15760405162461bcd60e51b815260206004820152604560248201527f446561646c696e652073686f756c642062652067726561746572207468616e2060448201527f6f7220657175616c20746f2063757272656e7420646561646c696e65202b2037606482015264206461797360d81b608482015260a401610221565b8160008060018054610a0391906114c6565b8152602001908152602001600020600201819055507fc7f2746aefc0d137a95df385581a90d8b73240b3e6724f8ecb10b58e88f0fb8b82604051610a4991815260200190565b60405180910390a15050565b6003546001600160a01b03163314610ac05760405162461bcd60e51b815260206004820152602860248201527f4f6e6c792046756e64696e6720436f6e747261637420697320616c6c6f776564604482015267081d1bc818d85b1b60c21b6064820152608401610221565b600654600160a01b900460ff1615610b0e5760405162461bcd60e51b8152602060048201526011602482015270119d5b991a5b99c81a5cc81c185d5cd959607a1b6044820152606401610221565b6040516323b872dd60e01b81526001600160a01b038481166004830152306024830152604482018390528316906323b872dd906064016020604051808303816000875af1158015610b63573d6000803e3d6000fd5b505050506040513d601f19601f82011682018060405250810190610b87919061150b565b508060008060018054610b9a91906114c6565b81526020019081526020016000206003016000828254610bba91906114f8565b909155505060018054610bcd91906114c6565b604080516001600160a01b038581168252602082018590528616917f36ff70277530a2a071958f37bd398afa6cfef474ded6f311c6ac64b79740c6f6910160405180910390a3505050565b6002546001600160a01b03163314610c425760405162461bcd60e51b815260040161022190611479565b600080600060018054610c5591906114c6565b8152602081019190915260409081016000908120546004805493516370a0823160e01b815230918101919091526001600160a01b039182169450919216906370a0823190602401602060405180830381865afa158015610cb9573d6000803e3d6000fd5b505050506040513d601f19601f82011682018060405250810190610cdd91906114df565b6005546040516370a0823160e01b81523060048201529192506000916001600160a01b03909116906370a0823190602401602060405180830381865afa158015610d2b573d6000803e3d6000fd5b505050506040513d601f19601f82011682018060405250810190610d4f91906114df565b6006546040516370a0823160e01b81523060048201529192506000916001600160a01b03909116906370a0823190602401602060405180830381865afa158015610d9d573d6000803e3d6000fd5b505050506040513d601f19601f82011682018060405250810190610dc191906114df565b9050600081610dd084866114f8565b610dda91906114f8565b600480546040516370a0823160e01b815230928101929092529192506001600160a01b039091169063a9059cbb90879083906370a0823190602401602060405180830381865afa158015610e32573d6000803e3d6000fd5b505050506040513d601f19601f82011682018060405250810190610e5691906114df565b6040516001600160e01b031960e085901b1681526001600160a01b03909216600483015260248201526044016020604051808303816000875af1158015610ea1573d6000803e3d6000fd5b505050506040513d601f19601f82011682018060405250810190610ec5919061150b565b506005546040516370a0823160e01b81523060048201526001600160a01b039091169063a9059cbb90879083906370a0823190602401602060405180830381865afa158015610f18573d6000803e3d6000fd5b505050506040513d601f19601f82011682018060405250810190610f3c91906114df565b6040516001600160e01b031960e085901b1681526001600160a01b03909216600483015260248201526044016020604051808303816000875af1158015610f87573d6000803e3d6000fd5b505050506040513d601f19601f82011682018060405250810190610fab919061150b565b506006546040516370a0823160e01b81523060048201526001600160a01b039091169063a9059cbb90879083906370a0823190602401602060405180830381865afa158015610ffe573d6000803e3d6000fd5b505050506040513d601f19601f8201168201806040525081019061102291906114df565b6040516001600160e01b031960e085901b1681526001600160a01b03909216600483015260248201526044016020604051808303816000875af115801561106d573d6000803e3d6000fd5b505050506040513d601f19601f82011682018060405250810190611091919061150b565b50846001600160a01b03167f7f48140e2fbcf69a4a99ed68a6bba200fc4379d90e4e8e5d9131b3987804dc57600180546107af91906114c6565b6002546001600160a01b031633146110f55760405162461bcd60e51b815260040161022190611479565b600081116111455760405162461bcd60e51b815260206004820152601860248201527f476f616c20416d6f756e742063616e206e6f74206265203000000000000000006044820152606401610221565b806000806001805461115791906114c6565b8152602001908152602001600020600101819055507f6546ee3c95edcdeddf664d0fa7ac4c03ea59a9f87af36d61b9fda13ae2ba52638160405161119d91815260200190565b60405180910390a150565b6002546001600160a01b031633146111d25760405162461bcd60e51b815260040161022190611479565b6001600160a01b0383166112145760405162461bcd60e51b815260206004820152600960248201526830204164647265737360b81b6044820152606401610221565b61122142621275006114f8565b81101561127f5760405162461bcd60e51b815260206004820152602660248201527f446561646c696e65206c657373207468616e2031342064617973206e6f7420616044820152651b1b1bddd95960d21b6064820152608401610221565b6001805460009081526020818152604080832080546001600160a01b0319166001600160a01b038916908117909155845484528184208501879055845484529281902060020185905592548351868152918201859052927fe3fa4d0f151090063844992e394060fa01cd6e2e1fca51e5d0852c299c3c1ab5910160405180910390a36001805490600061131183611534565b919050555061131e61139c565b600654604051600160a01b90910460ff161515907f0c3ccd23c1836807297aca2fda302f40baf2f67f3f9628351b352a91742c6c4290600090a2505050565b6002546001600160a01b031633146113875760405162461bcd60e51b815260040161022190611479565b6006805460ff60a01b1916600160a01b179055565b6002546001600160a01b031633146113c65760405162461bcd60e51b815260040161022190611479565b6006805460ff60a01b19169055565b6000602082840312156113e757600080fd5b5035919050565b80356001600160a01b038116811461140557600080fd5b919050565b60008060006060848603121561141f57600080fd5b611428846113ee565b9250611436602085016113ee565b9150604084013590509250925092565b60008060006060848603121561145b57600080fd5b611464846113ee565b95602085013595506040909401359392505050565b6020808252601d908201527f4f6e6c792041646d696e20697320616c6c6f77656420746f2063616c6c000000604082015260600190565b634e487b7160e01b600052601160045260246000fd5b818103818111156114d9576114d96114b0565b92915050565b6000602082840312156114f157600080fd5b5051919050565b808201808211156114d9576114d96114b0565b60006020828403121561151d57600080fd5b8151801515811461152d57600080fd5b9392505050565b600060018201611546576115466114b0565b506001019056fea2646970667358221220f41acdc5fa518eea99fa6670c6d7ac161a81d5785a165871e55b9cc3772bd4ac64736f6c63430008190033","linkReferences":{}},"methodIdentifiers":{"UNISWAP_ROUTER_ADDRESS()":"79b36943","USDC_ADDRESS()":"bb09d9b7","WETH_ADDRESS()":"040141e5","fundWithEther(uint256,uint256,uint256,uint256)":"7e910a85","fundWithStableCoin(address,uint256)":"1d8408cc"},"id":30}