{"abi":[{"type":"constructor","inputs":[{"name":"_admin","type":"address","internalType":"address"},{"name":"_allowedTokens","type":"address[]","internalType":"address[]"}],"stateMutability":"nonpayable"},{"type":"function","name":"fundWithStableCoin","inputs":[{"name":"_token","type":"address","internalType":"address"},{"name":"_amount","type":"uint256","internalType":"uint256"}],"outputs":[],"stateMutability":"nonpayable"}],"bytecode":{"object":"0x608060405234801561001057600080fd5b5060405161206338038061206383398101604081905261002f916101f0565b600380546001600160a01b0319166001600160a01b03841617905560005b81518110156100a85760016002600084848151811061006e5761006e6102c9565b6020908102919091018101516001600160a01b03168252810191909152604001600020805460ff191691151591909117905560010161004d565b50306040516100b6906101a4565b60608082526009908201526814dade549bd8dad95d60ba1b608082015260a0602082018190526003908201526214d2d560ea1b60c08201526001600160a01b03909116604082015260e001604051809103906000f08015801561011d573d6000803e3d6000fd5b50600460006101000a8154816001600160a01b0302191690836001600160a01b03160217905550813082604051610153906101b1565b61015f939291906102df565b604051809103906000f08015801561017b573d6000803e3d6000fd5b50600580546001600160a01b0319166001600160a01b0392909216919091179055506103449050565b610c1c806105ef83390190565b610e588061120b83390190565b80516001600160a01b03811681146101d557600080fd5b919050565b634e487b7160e01b600052604160045260246000fd5b6000806040838503121561020357600080fd5b61020c836101be565b602084810151919350906001600160401b038082111561022b57600080fd5b818601915086601f83011261023f57600080fd5b815181811115610251576102516101da565b8060051b604051601f19603f83011681018181108582111715610276576102766101da565b60405291825284820192508381018501918983111561029457600080fd5b938501935b828510156102b9576102aa856101be565b84529385019392850192610299565b8096505050505050509250929050565b634e487b7160e01b600052603260045260246000fd5b60006060820160018060a01b038087168452602081871660208601526060604086015282865180855260808701915060208801945060005b81811015610335578551851683529483019491830191600101610317565b50909998505050505050505050565b61029c806103536000396000f3fe608060405234801561001057600080fd5b506004361061002b5760003560e01c80631d8408cc14610030575b600080fd5b61004361003e366004610207565b610045565b005b6001600160a01b03821660009081526002602052604090205460ff166100a65760405162461bcd60e51b8152602060048201526011602482015270151bdad95b881b9bdd08185b1b1bddd959607a1b60448201526064015b60405180910390fd5b620f42408110156101085760405162461bcd60e51b815260206004820152602660248201527f416d6f756e742073686f756c642062652067726561746572206f7220657175616044820152656c20746f203160d01b606482015260840161009d565b336000818152602081905260408120805484929061012790849061023f565b9091555050600554604051634edf962960e01b81526001600160a01b03838116600483015285811660248301526044820185905290911690634edf962990606401600060405180830381600087803b15801561018257600080fd5b505af1158015610196573d6000803e3d6000fd5b5050600480546040516340c10f1960e01b81526001600160a01b038681169382019390935260248101879052911692506340c10f199150604401600060405180830381600087803b1580156101ea57600080fd5b505af11580156101fe573d6000803e3d6000fd5b50505050505050565b6000806040838503121561021a57600080fd5b82356001600160a01b038116811461023157600080fd5b946020939093013593505050565b8082018082111561026057634e487b7160e01b600052601160045260246000fd5b9291505056fea264697066735822122084ee53f8eb82d8636587e7795c748a3a34f1216874f7ea1b5d3fe4cbfda9127264736f6c63430008190033608060405234801561001057600080fd5b50604051610c1c380380610c1c83398101604081905261002f91610292565b8282600361003d83826103a2565b50600461004a82826103a2565b505050610063816516bcc41e900061006b60201b60201c565b505050610488565b6001600160a01b03821661009a5760405163ec442f0560e01b8152600060048201526024015b60405180910390fd5b6100a6600083836100aa565b5050565b6001600160a01b0383166100d55780600260008282546100ca9190610461565b909155506101479050565b6001600160a01b038316600090815260208190526040902054818110156101285760405163391434e360e21b81526001600160a01b03851660048201526024810182905260448101839052606401610091565b6001600160a01b03841660009081526020819052604090209082900390555b6001600160a01b03821661016357600280548290039055610182565b6001600160a01b03821660009081526020819052604090208054820190555b816001600160a01b0316836001600160a01b03167fddf252ad1be2c89b69c2b068fc378daa952ba7f163c4a11628f55a4df523b3ef836040516101c791815260200190565b60405180910390a3505050565b634e487b7160e01b600052604160045260246000fd5b600082601f8301126101fb57600080fd5b81516001600160401b0380821115610215576102156101d4565b604051601f8301601f19908116603f0116810190828211818310171561023d5761023d6101d4565b816040528381526020925086602085880101111561025a57600080fd5b600091505b8382101561027c578582018301518183018401529082019061025f565b6000602085830101528094505050505092915050565b6000806000606084860312156102a757600080fd5b83516001600160401b03808211156102be57600080fd5b6102ca878388016101ea565b945060208601519150808211156102e057600080fd5b506102ed868287016101ea565b604086015190935090506001600160a01b038116811461030c57600080fd5b809150509250925092565b600181811c9082168061032b57607f821691505b60208210810361034b57634e487b7160e01b600052602260045260246000fd5b50919050565b601f82111561039d576000816000526020600020601f850160051c8101602086101561037a5750805b601f850160051c820191505b8181101561039957828155600101610386565b5050505b505050565b81516001600160401b038111156103bb576103bb6101d4565b6103cf816103c98454610317565b84610351565b602080601f83116001811461040457600084156103ec5750858301515b600019600386901b1c1916600185901b178555610399565b600085815260208120601f198616915b8281101561043357888601518255948401946001909101908401610414565b50858210156104515787850151600019600388901b60f8161c191681555b5050505050600190811b01905550565b8082018082111561048257634e487b7160e01b600052601160045260246000fd5b92915050565b610785806104976000396000f3fe608060405234801561001057600080fd5b506004361061009e5760003560e01c806340c10f191161006657806340c10f191461011857806370a082311461012d57806395d89b4114610156578063a9059cbb1461015e578063dd62ed3e1461017157600080fd5b806306fdde03146100a3578063095ea7b3146100c157806318160ddd146100e457806323b872dd146100f6578063313ce56714610109575b600080fd5b6100ab6101aa565b6040516100b891906105ce565b60405180910390f35b6100d46100cf366004610639565b61023c565b60405190151581526020016100b8565b6002545b6040519081526020016100b8565b6100d4610104366004610663565b610256565b604051600681526020016100b8565b61012b610126366004610639565b61027a565b005b6100e861013b36600461069f565b6001600160a01b031660009081526020819052604090205490565b6100ab610288565b6100d461016c366004610639565b610297565b6100e861017f3660046106c1565b6001600160a01b03918216600090815260016020908152604080832093909416825291909152205490565b6060600380546101b9906106f4565b80601f01602080910402602001604051908101604052809291908181526020018280546101e5906106f4565b80156102325780601f1061020757610100808354040283529160200191610232565b820191906000526020600020905b81548152906001019060200180831161021557829003601f168201915b5050505050905090565b60003361024a8185856102a5565b60019150505b92915050565b6000336102648582856102b7565b61026f85858561033a565b506001949350505050565b6102848282610399565b5050565b6060600480546101b9906106f4565b60003361024a81858561033a565b6102b283838360016103cf565b505050565b6001600160a01b038381166000908152600160209081526040808320938616835292905220546000198114610334578181101561032557604051637dc7a0d960e11b81526001600160a01b038416600482015260248101829052604481018390526064015b60405180910390fd5b610334848484840360006103cf565b50505050565b6001600160a01b03831661036457604051634b637e8f60e11b81526000600482015260240161031c565b6001600160a01b03821661038e5760405163ec442f0560e01b81526000600482015260240161031c565b6102b28383836104a4565b6001600160a01b0382166103c35760405163ec442f0560e01b81526000600482015260240161031c565b610284600083836104a4565b6001600160a01b0384166103f95760405163e602df0560e01b81526000600482015260240161031c565b6001600160a01b03831661042357604051634a1406b160e11b81526000600482015260240161031c565b6001600160a01b038085166000908152600160209081526040808320938716835292905220829055801561033457826001600160a01b0316846001600160a01b03167f8c5be1e5ebec7d5bd14f71427d1e84f3dd0314c0f7b2291e5b200ac8c7c3b9258460405161049691815260200190565b60405180910390a350505050565b6001600160a01b0383166104cf5780600260008282546104c4919061072e565b909155506105419050565b6001600160a01b038316600090815260208190526040902054818110156105225760405163391434e360e21b81526001600160a01b0385166004820152602481018290526044810183905260640161031c565b6001600160a01b03841660009081526020819052604090209082900390555b6001600160a01b03821661055d5760028054829003905561057c565b6001600160a01b03821660009081526020819052604090208054820190555b816001600160a01b0316836001600160a01b03167fddf252ad1be2c89b69c2b068fc378daa952ba7f163c4a11628f55a4df523b3ef836040516105c191815260200190565b60405180910390a3505050565b60006020808352835180602085015260005b818110156105fc578581018301518582016040015282016105e0565b506000604082860101526040601f19601f8301168501019250505092915050565b80356001600160a01b038116811461063457600080fd5b919050565b6000806040838503121561064c57600080fd5b6106558361061d565b946020939093013593505050565b60008060006060848603121561067857600080fd5b6106818461061d565b925061068f6020850161061d565b9150604084013590509250925092565b6000602082840312156106b157600080fd5b6106ba8261061d565b9392505050565b600080604083850312156106d457600080fd5b6106dd8361061d565b91506106eb6020840161061d565b90509250929050565b600181811c9082168061070857607f821691505b60208210810361072857634e487b7160e01b600052602260045260246000fd5b50919050565b8082018082111561025057634e487b7160e01b600052601160045260246000fdfea2646970667358221220dcea4caab40c9abe1b9916aa127b978f8f6e09fa9c7f9cc91d6c2cb665d99eb364736f6c63430008190033608060405234801561001057600080fd5b50604051610e58380380610e5883398101604081905261002f9161015c565b600280546001600160a01b038086166001600160a01b03199283161790925560038054928516929091169190911790558051819060009061007257610072610244565b6020026020010151600460006101000a8154816001600160a01b0302191690836001600160a01b03160217905550806001815181106100b3576100b3610244565b6020026020010151600560006101000a8154816001600160a01b0302191690836001600160a01b03160217905550806002815181106100f4576100f4610244565b6020026020010151600660006101000a8154816001600160a01b0302191690836001600160a01b0316021790555050505061025a565b80516001600160a01b038116811461014157600080fd5b919050565b634e487b7160e01b600052604160045260246000fd5b60008060006060848603121561017157600080fd5b61017a8461012a565b9250602061018981860161012a565b60408601519093506001600160401b03808211156101a657600080fd5b818701915087601f8301126101ba57600080fd5b8151818111156101cc576101cc610146565b8060051b604051601f19603f830116810181811085821117156101f1576101f1610146565b60405291825284820192508381018501918a83111561020f57600080fd5b938501935b82851015610234576102258561012a565b84529385019392850192610214565b8096505050505050509250925092565b634e487b7160e01b600052603260045260246000fd5b610bef806102696000396000f3fe608060405234801561001057600080fd5b50600436106100885760003560e01c80634edf96291161005b5780634edf9629146100f2578063846ee443146101055780639e25b71e1461010d578063c90246b91461012057600080fd5b80630d9d18201461008d57806327947c4d146100975780632d2a1d20146100c9578063389b7533146100df575b600080fd5b610095610133565b005b61009f61054b565b604080516001600160a01b0390941684526020840192909252908201526060015b60405180910390f35b6100d16105a3565b6040519081526020016100c0565b6100956100ed3660046109fb565b6105cd565b610095610100366004610a30565b61064c565b6100956107bb565b61009561011b3660046109fb565b6107e5565b61009561012e366004610a6c565b610888565b6002546001600160a01b031633146101665760405162461bcd60e51b815260040161015d90610a9f565b60405180910390fd5b600080600180546101779190610aec565b81526020019081526020016000206002015442116101d75760405162461bcd60e51b815260206004820152601860248201527f446561646c696e65206e6f742072656163686564207965740000000000000000604482015260640161015d565b600080600180546101e89190610aec565b8152602001908152602001600020600101546000806001805461020b9190610aec565b81526020019081526020016000206003015410156102625760405162461bcd60e51b815260206004820152601460248201527311dbd85b081b9bdd081c995858da1959081e595d60621b604482015260640161015d565b6000806000600180546102759190610aec565b815260208101919091526040908101600020546004805492516370a0823160e01b815230918101919091526001600160a01b03918216935091169063a9059cbb90839083906370a0823190602401602060405180830381865afa1580156102e0573d6000803e3d6000fd5b505050506040513d601f19601f820116820180604052508101906103049190610b05565b6040516001600160e01b031960e085901b1681526001600160a01b03909216600483015260248201526044016020604051808303816000875af115801561034f573d6000803e3d6000fd5b505050506040513d601f19601f820116820180604052508101906103739190610b1e565b506005546040516370a0823160e01b81523060048201526001600160a01b039091169063a9059cbb90839083906370a0823190602401602060405180830381865afa1580156103c6573d6000803e3d6000fd5b505050506040513d601f19601f820116820180604052508101906103ea9190610b05565b6040516001600160e01b031960e085901b1681526001600160a01b03909216600483015260248201526044016020604051808303816000875af1158015610435573d6000803e3d6000fd5b505050506040513d601f19601f820116820180604052508101906104599190610b1e565b506006546040516370a0823160e01b81523060048201526001600160a01b039091169063a9059cbb90839083906370a0823190602401602060405180830381865afa1580156104ac573d6000803e3d6000fd5b505050506040513d601f19601f820116820180604052508101906104d09190610b05565b6040516001600160e01b031960e085901b1681526001600160a01b03909216600483015260248201526044016020604051808303816000875af115801561051b573d6000803e3d6000fd5b505050506040513d601f19601f8201168201806040525081019061053f9190610b1e565b50610548610983565b50565b6000806000806000600180546105619190610aec565b8152602080820192909252604090810160009081205460018054835293829052919020918201546002909201546001600160a01b039091169591945092509050565b6000806000600180546105b69190610aec565b815260200190815260200160002060030154905090565b6002546001600160a01b031633146105f75760405162461bcd60e51b815260040161015d90610a9f565b6106044262127500610b47565b8110156106235760405162461bcd60e51b815260040161015d90610b5a565b80600080600180546106359190610aec565b815260208101919091526040016000206002015550565b6003546001600160a01b031633146106b75760405162461bcd60e51b815260206004820152602860248201527f4f6e6c792046756e64696e6720436f6e747261637420697320616c6c6f776564604482015267081d1bc818d85b1b60c21b606482015260840161015d565b600654600160a01b900460ff16156107055760405162461bcd60e51b8152602060048201526011602482015270119d5b991a5b99c81a5cc81c185d5cd959607a1b604482015260640161015d565b6040516323b872dd60e01b81526001600160a01b038481166004830152306024830152604482018390528316906323b872dd906064016020604051808303816000875af115801561075a573d6000803e3d6000fd5b505050506040513d601f19601f8201168201806040525081019061077e9190610b1e565b5080600080600180546107919190610aec565b815260200190815260200160002060030160008282546107b19190610b47565b9091555050505050565b6002546001600160a01b031633146102625760405162461bcd60e51b815260040161015d90610a9f565b6002546001600160a01b0316331461080f5760405162461bcd60e51b815260040161015d90610a9f565b6000811161085f5760405162461bcd60e51b815260206004820152601860248201527f476f616c20416d6f756e742063616e206e6f7420626520300000000000000000604482015260640161015d565b80600080600180546108719190610aec565b815260208101919091526040016000206001015550565b6002546001600160a01b031633146108b25760405162461bcd60e51b815260040161015d90610a9f565b6001600160a01b0383166108f45760405162461bcd60e51b815260206004820152600960248201526830204164647265737360b81b604482015260640161015d565b6109014262127500610b47565b8110156109205760405162461bcd60e51b815260040161015d90610b5a565b6001805460009081526020819052604080822080546001600160a01b0319166001600160a01b0388161790558254825280822083018590558254825281206002018390558154919061097183610ba0565b919050555061097e6109c2565b505050565b6002546001600160a01b031633146109ad5760405162461bcd60e51b815260040161015d90610a9f565b6006805460ff60a01b1916600160a01b179055565b6002546001600160a01b031633146109ec5760405162461bcd60e51b815260040161015d90610a9f565b6006805460ff60a01b19169055565b600060208284031215610a0d57600080fd5b5035919050565b80356001600160a01b0381168114610a2b57600080fd5b919050565b600080600060608486031215610a4557600080fd5b610a4e84610a14565b9250610a5c60208501610a14565b9150604084013590509250925092565b600080600060608486031215610a8157600080fd5b610a8a84610a14565b95602085013595506040909401359392505050565b6020808252601d908201527f4f6e6c792041646d696e20697320616c6c6f77656420746f2063616c6c000000604082015260600190565b634e487b7160e01b600052601160045260246000fd5b81810381811115610aff57610aff610ad6565b92915050565b600060208284031215610b1757600080fd5b5051919050565b600060208284031215610b3057600080fd5b81518015158114610b4057600080fd5b9392505050565b80820180821115610aff57610aff610ad6565b60208082526026908201527f446561646c696e65206c657373207468616e2031342064617973206e6f7420616040820152651b1b1bddd95960d21b606082015260800190565b600060018201610bb257610bb2610ad6565b506001019056fea264697066735822122068151c5a8f756b9ce7e7871591b56f6a36022a4328c880f5d1d32a93e591337b64736f6c63430008190033","linkReferences":{}},"methodIdentifiers":{"fundWithStableCoin(address,uint256)":"1d8408cc"},"id":5}