{"abi":[{"type":"constructor","inputs":[{"name":"_admin","type":"address","internalType":"address"},{"name":"_funding","type":"address","internalType":"address"},{"name":"_allowedTokens","type":"address[]","internalType":"address[]"}],"stateMutability":"nonpayable"},{"type":"function","name":"addProject","inputs":[{"name":"_projectWallet","type":"address","internalType":"address"},{"name":"_goalAmount","type":"uint256","internalType":"uint256"},{"name":"_deadline","type":"uint256","internalType":"uint256"}],"outputs":[],"stateMutability":"nonpayable"},{"type":"function","name":"admin","inputs":[],"outputs":[{"name":"","type":"address","internalType":"address"}],"stateMutability":"view"},{"type":"function","name":"currentProjectDetails","inputs":[],"outputs":[{"name":"","type":"address","internalType":"address"},{"name":"","type":"uint256","internalType":"uint256"},{"name":"","type":"uint256","internalType":"uint256"},{"name":"","type":"uint256","internalType":"uint256"}],"stateMutability":"view"},{"type":"function","name":"extendDeadline","inputs":[{"name":"_deadline","type":"uint256","internalType":"uint256"}],"outputs":[],"stateMutability":"nonpayable"},{"type":"function","name":"forceReleaseFunds","inputs":[],"outputs":[],"stateMutability":"nonpayable"},{"type":"function","name":"funding","inputs":[],"outputs":[{"name":"","type":"address","internalType":"address"}],"stateMutability":"view"},{"type":"function","name":"fundsAccumulation","inputs":[{"name":"_account","type":"address","internalType":"address"},{"name":"_token","type":"address","internalType":"address"},{"name":"_amount","type":"uint256","internalType":"uint256"}],"outputs":[],"stateMutability":"nonpayable"},{"type":"function","name":"mDAI","inputs":[],"outputs":[{"name":"","type":"address","internalType":"address"}],"stateMutability":"view"},{"type":"function","name":"mUSDC","inputs":[],"outputs":[{"name":"","type":"address","internalType":"address"}],"stateMutability":"view"},{"type":"function","name":"mUSDT","inputs":[],"outputs":[{"name":"","type":"address","internalType":"address"}],"stateMutability":"view"},{"type":"function","name":"projectCounter","inputs":[],"outputs":[{"name":"","type":"uint256","internalType":"uint256"}],"stateMutability":"view"},{"type":"function","name":"updateGoals","inputs":[{"name":"_goalAmount","type":"uint256","internalType":"uint256"}],"outputs":[],"stateMutability":"nonpayable"},{"type":"event","name":"DeadlineExtended","inputs":[{"name":"newDeadline","type":"uint256","indexed":false,"internalType":"uint256"}],"anonymous":false},{"type":"event","name":"ForceFundsReleased","inputs":[{"name":"receiver","type":"address","indexed":true,"internalType":"address"},{"name":"projectId","type":"uint256","indexed":false,"internalType":"uint256"},{"name":"amount","type":"uint256","indexed":false,"internalType":"uint256"}],"anonymous":false},{"type":"event","name":"FundsReleased","inputs":[{"name":"receiver","type":"address","indexed":true,"internalType":"address"},{"name":"projectId","type":"uint256","indexed":false,"internalType":"uint256"},{"name":"amount","type":"uint256","indexed":false,"internalType":"uint256"}],"anonymous":false},{"type":"event","name":"GoalsUpdated","inputs":[{"name":"newGoalAmount","type":"uint256","indexed":false,"internalType":"uint256"}],"anonymous":false},{"type":"event","name":"Paused","inputs":[{"name":"value","type":"bool","indexed":true,"internalType":"bool"}],"anonymous":false},{"type":"event","name":"ProjectAdded","inputs":[{"name":"projectWallet","type":"address","indexed":true,"internalType":"address"},{"name":"projectId","type":"uint256","indexed":true,"internalType":"uint256"},{"name":"goalAmount","type":"uint256","indexed":false,"internalType":"uint256"},{"name":"deadline","type":"uint256","indexed":false,"internalType":"uint256"}],"anonymous":false},{"type":"event","name":"TokensFunded","inputs":[{"name":"account","type":"address","indexed":true,"internalType":"address"},{"name":"projectId","type":"uint256","indexed":true,"internalType":"uint256"},{"name":"token","type":"address","indexed":false,"internalType":"address"},{"name":"amount","type":"uint256","indexed":false,"internalType":"uint256"}],"anonymous":false},{"type":"event","name":"Unpaused","inputs":[{"name":"value","type":"bool","indexed":true,"internalType":"bool"}],"anonymous":false}],"bytecode":{"object":"0x608060405234801561001057600080fd5b506040516116fe3803806116fe83398101604081905261002f9161015f565b600280546001600160a01b038086166001600160a01b03199283161790925560038054928516929091169190911790558051819060009061007257610072610247565b6020026020010151600460006101000a8154816001600160a01b0302191690836001600160a01b03160217905550806001815181106100b3576100b3610247565b6020026020010151600560006101000a8154816001600160a01b0302191690836001600160a01b03160217905550806002815181106100f4576100f4610247565b6020908102919091010151600680546001600160a81b0319166001600160a01b0390921691909117600160a01b1790555061025d915050565b80516001600160a01b038116811461014457600080fd5b919050565b634e487b7160e01b600052604160045260246000fd5b60008060006060848603121561017457600080fd5b61017d8461012d565b9250602061018c81860161012d565b60408601519093506001600160401b03808211156101a957600080fd5b818701915087601f8301126101bd57600080fd5b8151818111156101cf576101cf610149565b8060051b604051601f19603f830116810181811085821117156101f4576101f4610149565b60405291825284820192508381018501918a83111561021257600080fd5b938501935b82851015610237576102288561012d565b84529385019392850192610217565b8096505050505050509250925092565b634e487b7160e01b600052603260045260246000fd5b6114928061026c6000396000f3fe608060405234801561001057600080fd5b50600436106100b45760003560e01c80639e25b71e116100715780639e25b71e1461015e578063c90246b914610171578063cb4c86b714610184578063f851a44014610197578063f89ec5f5146101aa578063f8a518ed146101bd57600080fd5b806327947c4d146100b957806337041dbd146100f0578063389b75331461011b5780634edf96291461013057806371e35a8e14610143578063846ee44314610156575b600080fd5b6100c16101d4565b604080516001600160a01b03909516855260208501939093529183015260608201526080015b60405180910390f35b600454610103906001600160a01b031681565b6040516001600160a01b0390911681526020016100e7565b61012e6101293660046112e4565b6102d8565b005b61012e61013e366004611319565b61041f565b600654610103906001600160a01b031681565b61012e610b25565b61012e61016c3660046112e4565b611048565b61012e61017f366004611355565b611125565b600354610103906001600160a01b031681565b600254610103906001600160a01b031681565b600554610103906001600160a01b031681565b6101c660015481565b6040519081526020016100e7565b600654600090819081908190600160a01b900460ff16156102325760405162461bcd60e51b81526020600482015260136024820152724e6f204f6e676f696e672050726f6a6563747360681b60448201526064015b60405180910390fd5b60008060018054610243919061139e565b81526020810191909152604001600090812054600180546001600160a01b03909216929182916102729161139e565b81526020019081526020016000206001015460008060018054610295919061139e565b815260200190815260200160002060030154600080600180546102b8919061139e565b815260200190815260200160002060020154935093509350935090919293565b6002546001600160a01b031633146103025760405162461bcd60e51b8152600401610229906113b7565b600080600060018054610315919061139e565b81526020019081526020016000206002015490508062093a8061033891906113ee565b8210156103bb5760405162461bcd60e51b815260206004820152604560248201527f446561646c696e652073686f756c642062652067726561746572207468616e2060448201527f6f7220657175616c20746f2063757272656e7420646561646c696e65202b2037606482015264206461797360d81b608482015260a401610229565b81600080600180546103cd919061139e565b8152602001908152602001600020600201819055507fc7f2746aefc0d137a95df385581a90d8b73240b3e6724f8ecb10b58e88f0fb8b8260405161041391815260200190565b60405180910390a15050565b6003546001600160a01b0316331461048a5760405162461bcd60e51b815260206004820152602860248201527f4f6e6c792046756e64696e6720436f6e747261637420697320616c6c6f776564604482015267081d1bc818d85b1b60c21b6064820152608401610229565b600654600160a01b900460ff16156104d85760405162461bcd60e51b8152602060048201526011602482015270119d5b991a5b99c81a5cc81c185d5cd959607a1b6044820152606401610229565b6040516323b872dd60e01b81526001600160a01b038481166004830152306024830152604482018390528316906323b872dd906064016020604051808303816000875af115801561052d573d6000803e3d6000fd5b505050506040513d601f19601f820116820180604052508101906105519190611401565b508060008060018054610564919061139e565b8152602001908152602001600020600301600082825461058491906113ee565b909155505060018054610597919061139e565b604080516001600160a01b038581168252602082018590528616917f36ff70277530a2a071958f37bd398afa6cfef474ded6f311c6ac64b79740c6f6910160405180910390a3600080600180546105ee919061139e565b81526020019081526020016000206001015460008060018054610611919061139e565b81526020019081526020016000206003015410610b205760008060006001805461063b919061139e565b8152602081019190915260409081016000908120546004805493516370a0823160e01b815230918101919091526001600160a01b039182169450919216906370a0823190602401602060405180830381865afa15801561069f573d6000803e3d6000fd5b505050506040513d601f19601f820116820180604052508101906106c3919061142a565b6005546040516370a0823160e01b81523060048201529192506000916001600160a01b03909116906370a0823190602401602060405180830381865afa158015610711573d6000803e3d6000fd5b505050506040513d601f19601f82011682018060405250810190610735919061142a565b6006546040516370a0823160e01b81523060048201529192506000916001600160a01b03909116906370a0823190602401602060405180830381865afa158015610783573d6000803e3d6000fd5b505050506040513d601f19601f820116820180604052508101906107a7919061142a565b90506000816107b684866113ee565b6107c091906113ee565b600480546040516370a0823160e01b815230928101929092529192506001600160a01b039091169063a9059cbb90879083906370a0823190602401602060405180830381865afa158015610818573d6000803e3d6000fd5b505050506040513d601f19601f8201168201806040525081019061083c919061142a565b6040516001600160e01b031960e085901b1681526001600160a01b03909216600483015260248201526044016020604051808303816000875af1158015610887573d6000803e3d6000fd5b505050506040513d601f19601f820116820180604052508101906108ab9190611401565b506005546040516370a0823160e01b81523060048201526001600160a01b039091169063a9059cbb90879083906370a0823190602401602060405180830381865afa1580156108fe573d6000803e3d6000fd5b505050506040513d601f19601f82011682018060405250810190610922919061142a565b6040516001600160e01b031960e085901b1681526001600160a01b03909216600483015260248201526044016020604051808303816000875af115801561096d573d6000803e3d6000fd5b505050506040513d601f19601f820116820180604052508101906109919190611401565b506006546040516370a0823160e01b81523060048201526001600160a01b039091169063a9059cbb90879083906370a0823190602401602060405180830381865afa1580156109e4573d6000803e3d6000fd5b505050506040513d601f19601f82011682018060405250810190610a08919061142a565b6040516001600160e01b031960e085901b1681526001600160a01b03909216600483015260248201526044016020604051808303816000875af1158015610a53573d6000803e3d6000fd5b505050506040513d601f19601f82011682018060405250810190610a779190611401565b50846001600160a01b03167fc90c76155d237557f9162f07cd0da2ff40418cd82028c0e89535270fb9de510460018054610ab1919061139e565b60408051918252602082018590520160405180910390a2610ae06006805460ff60a01b1916600160a01b179055565b600654604051600160a01b90910460ff161515907f0e2fb031ee032dc02d8011dc50b816eb450cf856abd8261680dac74f72165bd290600090a250505050505b505050565b6002546001600160a01b03163314610b4f5760405162461bcd60e51b8152600401610229906113b7565b600080600060018054610b62919061139e565b8152602081019190915260409081016000908120546004805493516370a0823160e01b815230918101919091526001600160a01b039182169450919216906370a0823190602401602060405180830381865afa158015610bc6573d6000803e3d6000fd5b505050506040513d601f19601f82011682018060405250810190610bea919061142a565b6005546040516370a0823160e01b81523060048201529192506000916001600160a01b03909116906370a0823190602401602060405180830381865afa158015610c38573d6000803e3d6000fd5b505050506040513d601f19601f82011682018060405250810190610c5c919061142a565b6006546040516370a0823160e01b81523060048201529192506000916001600160a01b03909116906370a0823190602401602060405180830381865afa158015610caa573d6000803e3d6000fd5b505050506040513d601f19601f82011682018060405250810190610cce919061142a565b9050600081610cdd84866113ee565b610ce791906113ee565b600480546040516370a0823160e01b815230928101929092529192506001600160a01b039091169063a9059cbb90879083906370a0823190602401602060405180830381865afa158015610d3f573d6000803e3d6000fd5b505050506040513d601f19601f82011682018060405250810190610d63919061142a565b6040516001600160e01b031960e085901b1681526001600160a01b03909216600483015260248201526044016020604051808303816000875af1158015610dae573d6000803e3d6000fd5b505050506040513d601f19601f82011682018060405250810190610dd29190611401565b506005546040516370a0823160e01b81523060048201526001600160a01b039091169063a9059cbb90879083906370a0823190602401602060405180830381865afa158015610e25573d6000803e3d6000fd5b505050506040513d601f19601f82011682018060405250810190610e49919061142a565b6040516001600160e01b031960e085901b1681526001600160a01b03909216600483015260248201526044016020604051808303816000875af1158015610e94573d6000803e3d6000fd5b505050506040513d601f19601f82011682018060405250810190610eb89190611401565b506006546040516370a0823160e01b81523060048201526001600160a01b039091169063a9059cbb90879083906370a0823190602401602060405180830381865afa158015610f0b573d6000803e3d6000fd5b505050506040513d601f19601f82011682018060405250810190610f2f919061142a565b6040516001600160e01b031960e085901b1681526001600160a01b03909216600483015260248201526044016020604051808303816000875af1158015610f7a573d6000803e3d6000fd5b505050506040513d601f19601f82011682018060405250810190610f9e9190611401565b50846001600160a01b03167f7f48140e2fbcf69a4a99ed68a6bba200fc4379d90e4e8e5d9131b3987804dc5760018054610fd8919061139e565b60408051918252602082018590520160405180910390a26110076006805460ff60a01b1916600160a01b179055565b600654604051600160a01b90910460ff161515907f0e2fb031ee032dc02d8011dc50b816eb450cf856abd8261680dac74f72165bd290600090a25050505050565b6002546001600160a01b031633146110725760405162461bcd60e51b8152600401610229906113b7565b600081116110c25760405162461bcd60e51b815260206004820152601860248201527f476f616c20416d6f756e742063616e206e6f74206265203000000000000000006044820152606401610229565b80600080600180546110d4919061139e565b8152602001908152602001600020600101819055507f6546ee3c95edcdeddf664d0fa7ac4c03ea59a9f87af36d61b9fda13ae2ba52638160405161111a91815260200190565b60405180910390a150565b6002546001600160a01b0316331461114f5760405162461bcd60e51b8152600401610229906113b7565b6001600160a01b0383166111915760405162461bcd60e51b815260206004820152600960248201526830204164647265737360b81b6044820152606401610229565b61119e42621275006113ee565b8110156111fc5760405162461bcd60e51b815260206004820152602660248201527f446561646c696e65206c657373207468616e2031342064617973206e6f7420616044820152651b1b1bddd95960d21b6064820152608401610229565b6001805460009081526020818152604080832080546001600160a01b0319166001600160a01b038916908117909155845484528184208501879055845484529281902060020185905592548351868152918201859052927fe3fa4d0f151090063844992e394060fa01cd6e2e1fca51e5d0852c299c3c1ab5910160405180910390a36001805490600061128e83611443565b91905055506112a56006805460ff60a01b19169055565b600654604051600160a01b90910460ff161515907f0c3ccd23c1836807297aca2fda302f40baf2f67f3f9628351b352a91742c6c4290600090a2505050565b6000602082840312156112f657600080fd5b5035919050565b80356001600160a01b038116811461131457600080fd5b919050565b60008060006060848603121561132e57600080fd5b611337846112fd565b9250611345602085016112fd565b9150604084013590509250925092565b60008060006060848603121561136a57600080fd5b611373846112fd565b95602085013595506040909401359392505050565b634e487b7160e01b600052601160045260246000fd5b818103818111156113b1576113b1611388565b92915050565b6020808252601d908201527f4f6e6c792041646d696e20697320616c6c6f77656420746f2063616c6c000000604082015260600190565b808201808211156113b1576113b1611388565b60006020828403121561141357600080fd5b8151801515811461142357600080fd5b9392505050565b60006020828403121561143c57600080fd5b5051919050565b60006001820161145557611455611388565b506001019056fea26469706673582212204760560d093ede078f5ffda8580f4c07cd2ac9941dc514c64ed5cb4f34d17ab364736f6c63430008190033","linkReferences":{}},"methodIdentifiers":{"addProject(address,uint256,uint256)":"c90246b9","admin()":"f851a440","currentProjectDetails()":"27947c4d","extendDeadline(uint256)":"389b7533","forceReleaseFunds()":"846ee443","funding()":"cb4c86b7","fundsAccumulation(address,address,uint256)":"4edf9629","mDAI()":"37041dbd","mUSDC()":"f89ec5f5","mUSDT()":"71e35a8e","projectCounter()":"f8a518ed","updateGoals(uint256)":"9e25b71e"},"id":34}