{"abi":[{"type":"constructor","inputs":[{"name":"_admin","type":"address","internalType":"address"},{"name":"_funding","type":"address","internalType":"address"},{"name":"_allowedTokens","type":"address[]","internalType":"address[]"}],"stateMutability":"nonpayable"},{"type":"function","name":"addProject","inputs":[{"name":"_projectWallet","type":"address","internalType":"address"},{"name":"_goalAmount","type":"uint256","internalType":"uint256"},{"name":"_deadline","type":"uint256","internalType":"uint256"}],"outputs":[],"stateMutability":"nonpayable"},{"type":"function","name":"admin","inputs":[],"outputs":[{"name":"","type":"address","internalType":"address"}],"stateMutability":"view"},{"type":"function","name":"currentProjectDetails","inputs":[],"outputs":[{"name":"","type":"address","internalType":"address"},{"name":"","type":"uint256","internalType":"uint256"},{"name":"","type":"uint256","internalType":"uint256"},{"name":"","type":"uint256","internalType":"uint256"}],"stateMutability":"view"},{"type":"function","name":"extendDeadline","inputs":[{"name":"_deadline","type":"uint256","internalType":"uint256"}],"outputs":[],"stateMutability":"nonpayable"},{"type":"function","name":"forceReleaseFunds","inputs":[],"outputs":[],"stateMutability":"nonpayable"},{"type":"function","name":"funding","inputs":[],"outputs":[{"name":"","type":"address","internalType":"address"}],"stateMutability":"view"},{"type":"function","name":"fundsAccumulation","inputs":[{"name":"_account","type":"address","internalType":"address"},{"name":"_token","type":"address","internalType":"address"},{"name":"_amount","type":"uint256","internalType":"uint256"}],"outputs":[],"stateMutability":"nonpayable"},{"type":"function","name":"mDAI","inputs":[],"outputs":[{"name":"","type":"address","internalType":"address"}],"stateMutability":"view"},{"type":"function","name":"mUSDC","inputs":[],"outputs":[{"name":"","type":"address","internalType":"address"}],"stateMutability":"view"},{"type":"function","name":"mUSDT","inputs":[],"outputs":[{"name":"","type":"address","internalType":"address"}],"stateMutability":"view"},{"type":"function","name":"projectCounter","inputs":[],"outputs":[{"name":"","type":"uint256","internalType":"uint256"}],"stateMutability":"view"},{"type":"function","name":"releaseFundsToProject","inputs":[],"outputs":[],"stateMutability":"nonpayable"},{"type":"function","name":"updateGoals","inputs":[{"name":"_goalAmount","type":"uint256","internalType":"uint256"}],"outputs":[],"stateMutability":"nonpayable"},{"type":"event","name":"DeadlineExtended","inputs":[{"name":"newDeadline","type":"uint256","indexed":false,"internalType":"uint256"}],"anonymous":false},{"type":"event","name":"ForceFundsReleased","inputs":[{"name":"receiver","type":"address","indexed":true,"internalType":"address"},{"name":"projectId","type":"uint256","indexed":false,"internalType":"uint256"},{"name":"amount","type":"uint256","indexed":false,"internalType":"uint256"}],"anonymous":false},{"type":"event","name":"FundsReleased","inputs":[{"name":"receiver","type":"address","indexed":true,"internalType":"address"},{"name":"projectId","type":"uint256","indexed":false,"internalType":"uint256"},{"name":"amount","type":"uint256","indexed":false,"internalType":"uint256"}],"anonymous":false},{"type":"event","name":"GoalsUpdated","inputs":[{"name":"newGoalAmount","type":"uint256","indexed":false,"internalType":"uint256"}],"anonymous":false},{"type":"event","name":"Paused","inputs":[{"name":"value","type":"bool","indexed":true,"internalType":"bool"}],"anonymous":false},{"type":"event","name":"ProjectAdded","inputs":[{"name":"projectWallet","type":"address","indexed":true,"internalType":"address"},{"name":"projectId","type":"uint256","indexed":true,"internalType":"uint256"},{"name":"goalAmount","type":"uint256","indexed":false,"internalType":"uint256"},{"name":"deadline","type":"uint256","indexed":false,"internalType":"uint256"}],"anonymous":false},{"type":"event","name":"TokensFunded","inputs":[{"name":"account","type":"address","indexed":true,"internalType":"address"},{"name":"projectId","type":"uint256","indexed":true,"internalType":"uint256"},{"name":"token","type":"address","indexed":false,"internalType":"address"},{"name":"amount","type":"uint256","indexed":false,"internalType":"uint256"}],"anonymous":false},{"type":"event","name":"Unpaused","inputs":[{"name":"value","type":"bool","indexed":true,"internalType":"bool"}],"anonymous":false}],"bytecode":{"object":"0x608060405234801561001057600080fd5b506040516117ef3803806117ef83398101604081905261002f9161015f565b600280546001600160a01b038086166001600160a01b03199283161790925560038054928516929091169190911790558051819060009061007257610072610247565b6020026020010151600460006101000a8154816001600160a01b0302191690836001600160a01b03160217905550806001815181106100b3576100b3610247565b6020026020010151600560006101000a8154816001600160a01b0302191690836001600160a01b03160217905550806002815181106100f4576100f4610247565b6020908102919091010151600680546001600160a81b0319166001600160a01b0390921691909117600160a01b1790555061025d915050565b80516001600160a01b038116811461014457600080fd5b919050565b634e487b7160e01b600052604160045260246000fd5b60008060006060848603121561017457600080fd5b61017d8461012d565b9250602061018c81860161012d565b60408601519093506001600160401b03808211156101a957600080fd5b818701915087601f8301126101bd57600080fd5b8151818111156101cf576101cf610149565b8060051b604051601f19603f830116810181811085821117156101f4576101f4610149565b60405291825284820192508381018501918a83111561021257600080fd5b938501935b82851015610237576102288561012d565b84529385019392850192610217565b8096505050505050509250925092565b634e487b7160e01b600052603260045260246000fd5b6115838061026c6000396000f3fe608060405234801561001057600080fd5b50600436106100cf5760003560e01c8063846ee4431161008c578063cb4c86b711610066578063cb4c86b7146101a7578063f851a440146101ba578063f89ec5f5146101cd578063f8a518ed146101e057600080fd5b8063846ee443146101795780639e25b71e14610181578063c90246b91461019457600080fd5b80630d9d1820146100d457806327947c4d146100de57806337041dbd14610115578063389b7533146101405780634edf96291461015357806371e35a8e14610166575b600080fd5b6100dc6101f7565b005b6100e661080f565b604080516001600160a01b03909516855260208501939093529183015260608201526080015b60405180910390f35b600454610128906001600160a01b031681565b6040516001600160a01b03909116815260200161010c565b6100dc61014e3660046113d5565b61090e565b6100dc61016136600461140a565b610a55565b600654610128906001600160a01b031681565b6100dc610c18565b6100dc61018f3660046113d5565b6110cb565b6100dc6101a2366004611446565b6111a8565b600354610128906001600160a01b031681565b600254610128906001600160a01b031681565b600554610128906001600160a01b031681565b6101e960015481565b60405190815260200161010c565b6002546001600160a01b0316331461022a5760405162461bcd60e51b815260040161022190611479565b60405180910390fd5b6000806001805461023b91906114c6565b815260200190815260200160002060020154421161029b5760405162461bcd60e51b815260206004820152601860248201527f446561646c696e65206e6f7420726561636865642079657400000000000000006044820152606401610221565b600080600180546102ac91906114c6565b815260200190815260200160002060010154600080600180546102cf91906114c6565b81526020019081526020016000206003015410156103265760405162461bcd60e51b815260206004820152601460248201527311dbd85b081b9bdd081c995858da1959081e595d60621b6044820152606401610221565b60008060006001805461033991906114c6565b8152602081019190915260409081016000908120546004805493516370a0823160e01b815230918101919091526001600160a01b039182169450919216906370a0823190602401602060405180830381865afa15801561039d573d6000803e3d6000fd5b505050506040513d601f19601f820116820180604052508101906103c191906114df565b6005546040516370a0823160e01b81523060048201529192506000916001600160a01b03909116906370a0823190602401602060405180830381865afa15801561040f573d6000803e3d6000fd5b505050506040513d601f19601f8201168201806040525081019061043391906114df565b6006546040516370a0823160e01b81523060048201529192506000916001600160a01b03909116906370a0823190602401602060405180830381865afa158015610481573d6000803e3d6000fd5b505050506040513d601f19601f820116820180604052508101906104a591906114df565b90506000816104b484866114f8565b6104be91906114f8565b600480546040516370a0823160e01b815230928101929092529192506001600160a01b039091169063a9059cbb90879083906370a0823190602401602060405180830381865afa158015610516573d6000803e3d6000fd5b505050506040513d601f19601f8201168201806040525081019061053a91906114df565b6040516001600160e01b031960e085901b1681526001600160a01b03909216600483015260248201526044016020604051808303816000875af1158015610585573d6000803e3d6000fd5b505050506040513d601f19601f820116820180604052508101906105a9919061150b565b506005546040516370a0823160e01b81523060048201526001600160a01b039091169063a9059cbb90879083906370a0823190602401602060405180830381865afa1580156105fc573d6000803e3d6000fd5b505050506040513d601f19601f8201168201806040525081019061062091906114df565b6040516001600160e01b031960e085901b1681526001600160a01b03909216600483015260248201526044016020604051808303816000875af115801561066b573d6000803e3d6000fd5b505050506040513d601f19601f8201168201806040525081019061068f919061150b565b506006546040516370a0823160e01b81523060048201526001600160a01b039091169063a9059cbb90879083906370a0823190602401602060405180830381865afa1580156106e2573d6000803e3d6000fd5b505050506040513d601f19601f8201168201806040525081019061070691906114df565b6040516001600160e01b031960e085901b1681526001600160a01b03909216600483015260248201526044016020604051808303816000875af1158015610751573d6000803e3d6000fd5b505050506040513d601f19601f82011682018060405250810190610775919061150b565b50846001600160a01b03167fc90c76155d237557f9162f07cd0da2ff40418cd82028c0e89535270fb9de5104600180546107af91906114c6565b60408051918252602082018590520160405180910390a26107ce61135d565b600654604051600160a01b90910460ff161515907f0e2fb031ee032dc02d8011dc50b816eb450cf856abd8261680dac74f72165bd290600090a25050505050565b600654600090819081908190600160a01b900460ff16156108685760405162461bcd60e51b81526020600482015260136024820152724e6f204f6e676f696e672050726f6a6563747360681b6044820152606401610221565b6000806001805461087991906114c6565b81526020810191909152604001600090812054600180546001600160a01b03909216929182916108a8916114c6565b815260200190815260200160002060010154600080600180546108cb91906114c6565b815260200190815260200160002060030154600080600180546108ee91906114c6565b815260200190815260200160002060020154935093509350935090919293565b6002546001600160a01b031633146109385760405162461bcd60e51b815260040161022190611479565b60008060006001805461094b91906114c6565b81526020019081526020016000206002015490508062093a8061096e91906114f8565b8210156109f15760405162461bcd60e51b815260206004820152604560248201527f446561646c696e652073686f756c642062652067726561746572207468616e2060448201527f6f7220657175616c20746f2063757272656e7420646561646c696e65202b2037606482015264206461797360d81b608482015260a401610221565b8160008060018054610a0391906114c6565b8152602001908152602001600020600201819055507fc7f2746aefc0d137a95df385581a90d8b73240b3e6724f8ecb10b58e88f0fb8b82604051610a4991815260200190565b60405180910390a15050565b6003546001600160a01b03163314610ac05760405162461bcd60e51b815260206004820152602860248201527f4f6e6c792046756e64696e6720436f6e747261637420697320616c6c6f776564604482015267081d1bc818d85b1b60c21b6064820152608401610221565b600654600160a01b900460ff1615610b0e5760405162461bcd60e51b8152602060048201526011602482015270119d5b991a5b99c81a5cc81c185d5cd959607a1b6044820152606401610221565b6040516323b872dd60e01b81526001600160a01b038481166004830152306024830152604482018390528316906323b872dd906064016020604051808303816000875af1158015610b63573d6000803e3d6000fd5b505050506040513d601f19601f82011682018060405250810190610b87919061150b565b508060008060018054610b9a91906114c6565b81526020019081526020016000206003016000828254610bba91906114f8565b909155505060018054610bcd91906114c6565b604080516001600160a01b038581168252602082018590528616917f36ff70277530a2a071958f37bd398afa6cfef474ded6f311c6ac64b79740c6f6910160405180910390a3505050565b6002546001600160a01b03163314610c425760405162461bcd60e51b815260040161022190611479565b600080600060018054610c5591906114c6565b8152602081019190915260409081016000908120546004805493516370a0823160e01b815230918101919091526001600160a01b039182169450919216906370a0823190602401602060405180830381865afa158015610cb9573d6000803e3d6000fd5b505050506040513d601f19601f82011682018060405250810190610cdd91906114df565b6005546040516370a0823160e01b81523060048201529192506000916001600160a01b03909116906370a0823190602401602060405180830381865afa158015610d2b573d6000803e3d6000fd5b505050506040513d601f19601f82011682018060405250810190610d4f91906114df565b6006546040516370a0823160e01b81523060048201529192506000916001600160a01b03909116906370a0823190602401602060405180830381865afa158015610d9d573d6000803e3d6000fd5b505050506040513d601f19601f82011682018060405250810190610dc191906114df565b9050600081610dd084866114f8565b610dda91906114f8565b600480546040516370a0823160e01b815230928101929092529192506001600160a01b039091169063a9059cbb90879083906370a0823190602401602060405180830381865afa158015610e32573d6000803e3d6000fd5b505050506040513d601f19601f82011682018060405250810190610e5691906114df565b6040516001600160e01b031960e085901b1681526001600160a01b03909216600483015260248201526044016020604051808303816000875af1158015610ea1573d6000803e3d6000fd5b505050506040513d601f19601f82011682018060405250810190610ec5919061150b565b506005546040516370a0823160e01b81523060048201526001600160a01b039091169063a9059cbb90879083906370a0823190602401602060405180830381865afa158015610f18573d6000803e3d6000fd5b505050506040513d601f19601f82011682018060405250810190610f3c91906114df565b6040516001600160e01b031960e085901b1681526001600160a01b03909216600483015260248201526044016020604051808303816000875af1158015610f87573d6000803e3d6000fd5b505050506040513d601f19601f82011682018060405250810190610fab919061150b565b506006546040516370a0823160e01b81523060048201526001600160a01b039091169063a9059cbb90879083906370a0823190602401602060405180830381865afa158015610ffe573d6000803e3d6000fd5b505050506040513d601f19601f8201168201806040525081019061102291906114df565b6040516001600160e01b031960e085901b1681526001600160a01b03909216600483015260248201526044016020604051808303816000875af115801561106d573d6000803e3d6000fd5b505050506040513d601f19601f82011682018060405250810190611091919061150b565b50846001600160a01b03167f7f48140e2fbcf69a4a99ed68a6bba200fc4379d90e4e8e5d9131b3987804dc57600180546107af91906114c6565b6002546001600160a01b031633146110f55760405162461bcd60e51b815260040161022190611479565b600081116111455760405162461bcd60e51b815260206004820152601860248201527f476f616c20416d6f756e742063616e206e6f74206265203000000000000000006044820152606401610221565b806000806001805461115791906114c6565b8152602001908152602001600020600101819055507f6546ee3c95edcdeddf664d0fa7ac4c03ea59a9f87af36d61b9fda13ae2ba52638160405161119d91815260200190565b60405180910390a150565b6002546001600160a01b031633146111d25760405162461bcd60e51b815260040161022190611479565b6001600160a01b0383166112145760405162461bcd60e51b815260206004820152600960248201526830204164647265737360b81b6044820152606401610221565b61122142621275006114f8565b81101561127f5760405162461bcd60e51b815260206004820152602660248201527f446561646c696e65206c657373207468616e2031342064617973206e6f7420616044820152651b1b1bddd95960d21b6064820152608401610221565b6001805460009081526020818152604080832080546001600160a01b0319166001600160a01b038916908117909155845484528184208501879055845484529281902060020185905592548351868152918201859052927fe3fa4d0f151090063844992e394060fa01cd6e2e1fca51e5d0852c299c3c1ab5910160405180910390a36001805490600061131183611534565b919050555061131e61139c565b600654604051600160a01b90910460ff161515907f0c3ccd23c1836807297aca2fda302f40baf2f67f3f9628351b352a91742c6c4290600090a2505050565b6002546001600160a01b031633146113875760405162461bcd60e51b815260040161022190611479565b6006805460ff60a01b1916600160a01b179055565b6002546001600160a01b031633146113c65760405162461bcd60e51b815260040161022190611479565b6006805460ff60a01b19169055565b6000602082840312156113e757600080fd5b5035919050565b80356001600160a01b038116811461140557600080fd5b919050565b60008060006060848603121561141f57600080fd5b611428846113ee565b9250611436602085016113ee565b9150604084013590509250925092565b60008060006060848603121561145b57600080fd5b611464846113ee565b95602085013595506040909401359392505050565b6020808252601d908201527f4f6e6c792041646d696e20697320616c6c6f77656420746f2063616c6c000000604082015260600190565b634e487b7160e01b600052601160045260246000fd5b818103818111156114d9576114d96114b0565b92915050565b6000602082840312156114f157600080fd5b5051919050565b808201808211156114d9576114d96114b0565b60006020828403121561151d57600080fd5b8151801515811461152d57600080fd5b9392505050565b600060018201611546576115466114b0565b506001019056fea26469706673582212207b27b56ddd5464f467b220dd2c3ca95f834b31b86fd72f7f818e8e711c18e46d64736f6c63430008190033","linkReferences":{}},"methodIdentifiers":{"addProject(address,uint256,uint256)":"c90246b9","admin()":"f851a440","currentProjectDetails()":"27947c4d","extendDeadline(uint256)":"389b7533","forceReleaseFunds()":"846ee443","funding()":"cb4c86b7","fundsAccumulation(address,address,uint256)":"4edf9629","mDAI()":"37041dbd","mUSDC()":"f89ec5f5","mUSDT()":"71e35a8e","projectCounter()":"f8a518ed","releaseFundsToProject()":"0d9d1820","updateGoals(uint256)":"9e25b71e"},"id":37}